{
  "_format": "hh-sol-artifact-1",
  "contractName": "ParentContract",
  "sourceName": "contracts/SecretVault(contract inheritence).sol",
  "abi": [
    {
      "inputs": [
        {
          "internalType": "string",
          "name": "_secret",
          "type": "string"
        }
      ],
      "stateMutability": "nonpayable",
      "type": "constructor"
    },
    {
      "inputs": [],
      "name": "getSecret",
      "outputs": [
        {
          "internalType": "string",
          "name": "",
          "type": "string"
        }
      ],
      "stateMutability": "view",
      "type": "function"
    }
  ],
  "bytecode": "0x60806040523480156200001157600080fd5b5060405162000f0038038062000f0083398181016040528101906200003791906200029e565b336000806101000a81548173ffffffffffffffffffffffffffffffffffffffff021916908373ffffffffffffffffffffffffffffffffffffffff1602179055506000816040516200008890620000fd565b6200009491906200034c565b604051809103906000f080158015620000b1573d6000803e3d6000fd5b50905080600260006101000a81548173ffffffffffffffffffffffffffffffffffffffff021916908373ffffffffffffffffffffffffffffffffffffffff160217905550505062000370565b61073080620007d083390190565b6000604051905090565b600080fd5b600080fd5b600080fd5b600080fd5b6000601f19601f8301169050919050565b7f4e487b7100000000000000000000000000000000000000000000000000000000600052604160045260246000fd5b620001748262000129565b810181811067ffffffffffffffff821117156200019657620001956200013a565b5b80604052505050565b6000620001ab6200010b565b9050620001b9828262000169565b919050565b600067ffffffffffffffff821115620001dc57620001db6200013a565b5b620001e78262000129565b9050602081019050919050565b60005b8381101562000214578082015181840152602081019050620001f7565b60008484015250505050565b6000620002376200023184620001be565b6200019f565b90508281526020810184848401111562000256576200025562000124565b5b62000263848285620001f4565b509392505050565b600082601f8301126200028357620002826200011f565b5b81516200029584826020860162000220565b91505092915050565b600060208284031215620002b757620002b662000115565b5b600082015167ffffffffffffffff811115620002d857620002d76200011a565b5b620002e6848285016200026b565b91505092915050565b600081519050919050565b600082825260208201905092915050565b60006200031882620002ef565b620003248185620002fa565b935062000336818560208601620001f4565b620003418162000129565b840191505092915050565b600060208201905081810360008301526200036881846200030b565b905092915050565b61045080620003806000396000f3fe608060405234801561001057600080fd5b506004361061002b5760003560e01c80635b9fdc3014610030575b600080fd5b61003861004e565b6040516100459190610209565b60405180910390f35b606060008054906101000a900473ffffffffffffffffffffffffffffffffffffffff1673ffffffffffffffffffffffffffffffffffffffff163373ffffffffffffffffffffffffffffffffffffffff16146100de576040517f08c379a00000000000000000000000000000000000000000000000000000000081526004016100d590610277565b60405180910390fd5b600260009054906101000a900473ffffffffffffffffffffffffffffffffffffffff1673ffffffffffffffffffffffffffffffffffffffff16635b9fdc306040518163ffffffff1660e01b8152600401600060405180830381865afa15801561014b573d6000803e3d6000fd5b505050506040513d6000823e3d601f19601f8201168201806040525081019061017491906103d1565b905090565b600081519050919050565b600082825260208201905092915050565b60005b838110156101b3578082015181840152602081019050610198565b60008484015250505050565b6000601f19601f8301169050919050565b60006101db82610179565b6101e58185610184565b93506101f5818560208601610195565b6101fe816101bf565b840191505092915050565b6000602082019050818103600083015261022381846101d0565b905092915050565b7f6e6f7420616e206f776e65720000000000000000000000000000000000000000600082015250565b6000610261600c83610184565b915061026c8261022b565b602082019050919050565b6000602082019050818103600083015261029081610254565b9050919050565b6000604051905090565b600080fd5b600080fd5b600080fd5b600080fd5b7f4e487b7100000000000000000000000000000000000000000000000000000000600052604160045260246000fd5b6102ed826101bf565b810181811067ffffffffffffffff8211171561030c5761030b6102b5565b5b80604052505050565b600061031f610297565b905061032b82826102e4565b919050565b600067ffffffffffffffff82111561034b5761034a6102b5565b5b610354826101bf565b9050602081019050919050565b600061037461036f84610330565b610315565b9050828152602081018484840111156103905761038f6102b0565b5b61039b848285610195565b509392505050565b600082601f8301126103b8576103b76102ab565b5b81516103c8848260208601610361565b91505092915050565b6000602082840312156103e7576103e66102a1565b5b600082015167ffffffffffffffff811115610405576104046102a6565b5b610411848285016103a3565b9150509291505056fea2646970667358221220097e8156525672b78a934e234e619b79c6475fbbae55c64e37e78657b1937ce164736f6c63430008130033608060405234801561001057600080fd5b50604051610730380380610730833981810160405281019061003291906101bd565b80600090816100419190610427565b50506104f9565b6000604051905090565b600080fd5b600080fd5b600080fd5b600080fd5b6000601f19601f8301169050919050565b7f4e487b7100000000000000000000000000000000000000000000000000000000600052604160045260246000fd5b6100af82610066565b810181811067ffffffffffffffff821117156100ce576100cd610077565b5b80604052505050565b60006100e1610048565b90506100ed82826100a6565b919050565b600067ffffffffffffffff82111561010d5761010c610077565b5b61011682610066565b9050602081019050919050565b60005b83811015610141578082015181840152602081019050610126565b60008484015250505050565b600061016061015b846100f2565b6100d7565b90508281526020810184848401111561017c5761017b610061565b5b610187848285610123565b509392505050565b600082601f8301126101a4576101a361005c565b5b81516101b484826020860161014d565b91505092915050565b6000602082840312156101d3576101d2610052565b5b600082015167ffffffffffffffff8111156101f1576101f0610057565b5b6101fd8482850161018f565b91505092915050565b600081519050919050565b7f4e487b7100000000000000000000000000000000000000000000000000000000600052602260045260246000fd5b6000600282049050600182168061025857607f821691505b60208210810361026b5761026a610211565b5b50919050565b60008190508160005260206000209050919050565b60006020601f8301049050919050565b600082821b905092915050565b6000600883026102d37fffffffffffffffffffffffffffffffffffffffffffffffffffffffffffffffff82610296565b6102dd8683610296565b95508019841693508086168417925050509392505050565b6000819050919050565b6000819050919050565b600061032461031f61031a846102f5565b6102ff565b6102f5565b9050919050565b6000819050919050565b61033e83610309565b61035261034a8261032b565b8484546102a3565b825550505050565b600090565b61036761035a565b610372818484610335565b505050565b5b818110156103965761038b60008261035f565b600181019050610378565b5050565b601f8211156103db576103ac81610271565b6103b584610286565b810160208510156103c4578190505b6103d86103d085610286565b830182610377565b50505b505050565b600082821c905092915050565b60006103fe600019846008026103e0565b1980831691505092915050565b600061041783836103ed565b9150826002028217905092915050565b61043082610206565b67ffffffffffffffff81111561044957610448610077565b5b6104538254610240565b61045e82828561039a565b600060209050601f831160018114610491576000841561047f578287015190505b610489858261040b565b8655506104f1565b601f19841661049f86610271565b60005b828110156104c7578489015182556001820191506020850194506020810190506104a2565b868310156104e457848901516104e0601f8916826103ed565b8355505b6001600288020188555050505b505050505050565b610228806105086000396000f3fe608060405234801561001057600080fd5b506004361061002b5760003560e01c80635b9fdc3014610030575b600080fd5b61003861004e565b6040516100459190610170565b60405180910390f35b60606000805461005d906101c1565b80601f0160208091040260200160405190810160405280929190818152602001828054610089906101c1565b80156100d65780601f106100ab576101008083540402835291602001916100d6565b820191906000526020600020905b8154815290600101906020018083116100b957829003601f168201915b5050505050905090565b600081519050919050565b600082825260208201905092915050565b60005b8381101561011a5780820151818401526020810190506100ff565b60008484015250505050565b6000601f19601f8301169050919050565b6000610142826100e0565b61014c81856100eb565b935061015c8185602086016100fc565b61016581610126565b840191505092915050565b6000602082019050818103600083015261018a8184610137565b905092915050565b7f4e487b7100000000000000000000000000000000000000000000000000000000600052602260045260246000fd5b600060028204905060018216806101d957607f821691505b6020821081036101ec576101eb610192565b5b5091905056fea26469706673582212204f222c06c279f285488d0e6ece1245056dcf79f62aa9dc1fdf130b9d2e7ddd1f64736f6c63430008130033",
  "linkReferences": {},
  "deployedLinkReferences": {}
}