{
  "_format": "hh-sol-artifact-1",
  "contractName": "UniswapExample",
  "sourceName": "contracts/uniswapEthReserversUsingInterface.sol",
  "abi": [
    {
      "inputs": [],
      "name": "getTokenReserves",
      "outputs": [
        {
          "internalType": "uint256",
          "name": "",
          "type": "uint256"
        },
        {
          "internalType": "uint256",
          "name": "",
          "type": "uint256"
        }
      ],
      "stateMutability": "view",
      "type": "function"
    }
  ],
  "bytecode": "0x6080604052735c69bee701ef814a2b6a3edd4b1652cb9cc5aa6f6000806101000a81548173ffffffffffffffffffffffffffffffffffffffff021916908373ffffffffffffffffffffffffffffffffffffffff160217905550736b175474e89094c44da98b954eedeac495271d0f600160006101000a81548173ffffffffffffffffffffffffffffffffffffffff021916908373ffffffffffffffffffffffffffffffffffffffff16021790555073c02aaa39b223fe8d0a0e5c4f27ead9083c756cc2600260006101000a81548173ffffffffffffffffffffffffffffffffffffffff021916908373ffffffffffffffffffffffffffffffffffffffff16021790555034801561010e57600080fd5b506103f08061011e6000396000f3fe608060405234801561001057600080fd5b506004361061002b5760003560e01c8063b9cf500514610030575b600080fd5b61003861004f565b6040516100469291906101f4565b60405180910390f35b60008060008060009054906101000a900473ffffffffffffffffffffffffffffffffffffffff1673ffffffffffffffffffffffffffffffffffffffff1663e6a43905600160009054906101000a900473ffffffffffffffffffffffffffffffffffffffff16600260009054906101000a900473ffffffffffffffffffffffffffffffffffffffff166040518363ffffffff1660e01b81526004016100f492919061025e565b602060405180830381865afa158015610111573d6000803e3d6000fd5b505050506040513d601f19601f8201168201806040525081019061013591906102b8565b90506000808273ffffffffffffffffffffffffffffffffffffffff16630902f1ac6040518163ffffffff1660e01b8152600401606060405180830381865afa158015610185573d6000803e3d6000fd5b505050506040513d601f19601f820116820180604052508101906101a99190610367565b506dffffffffffffffffffffffffffff1691506dffffffffffffffffffffffffffff1691508181945094505050509091565b6000819050919050565b6101ee816101db565b82525050565b600060408201905061020960008301856101e5565b61021660208301846101e5565b9392505050565b600073ffffffffffffffffffffffffffffffffffffffff82169050919050565b60006102488261021d565b9050919050565b6102588161023d565b82525050565b6000604082019050610273600083018561024f565b610280602083018461024f565b9392505050565b600080fd5b6102958161023d565b81146102a057600080fd5b50565b6000815190506102b28161028c565b92915050565b6000602082840312156102ce576102cd610287565b5b60006102dc848285016102a3565b91505092915050565b60006dffffffffffffffffffffffffffff82169050919050565b610308816102e5565b811461031357600080fd5b50565b600081519050610325816102ff565b92915050565b600063ffffffff82169050919050565b6103448161032b565b811461034f57600080fd5b50565b6000815190506103618161033b565b92915050565b6000806000606084860312156103805761037f610287565b5b600061038e86828701610316565b935050602061039f86828701610316565b92505060406103b086828701610352565b915050925092509256fea26469706673582212200edff2ed1c12f1eab3aabbd2563a5b02edc801264fd8a945b3faff0a8edb3f3e64736f6c63430008130033",
  "linkReferences": {},
  "deployedLinkReferences": {}
}