{
  "_format": "hh-sol-artifact-1",
  "contractName": "Token",
  "sourceName": "contracts/Token.sol",
  "abi": [
    {
      "inputs": [],
      "stateMutability": "nonpayable",
      "type": "constructor"
    },
    {
      "anonymous": false,
      "inputs": [
        {
          "indexed": true,
          "internalType": "address",
          "name": "_from",
          "type": "address"
        },
        {
          "indexed": true,
          "internalType": "address",
          "name": "_to",
          "type": "address"
        },
        {
          "indexed": false,
          "internalType": "uint256",
          "name": "_value",
          "type": "uint256"
        }
      ],
      "name": "Transfer",
      "type": "event"
    },
    {
      "inputs": [
        {
          "internalType": "address",
          "name": "_account",
          "type": "address"
        }
      ],
      "name": "balanceOf",
      "outputs": [
        {
          "internalType": "uint256",
          "name": "",
          "type": "uint256"
        }
      ],
      "stateMutability": "view",
      "type": "function"
    },
    {
      "inputs": [],
      "name": "name",
      "outputs": [
        {
          "internalType": "string",
          "name": "",
          "type": "string"
        }
      ],
      "stateMutability": "view",
      "type": "function"
    },
    {
      "inputs": [],
      "name": "owner",
      "outputs": [
        {
          "internalType": "address",
          "name": "",
          "type": "address"
        }
      ],
      "stateMutability": "view",
      "type": "function"
    },
    {
      "inputs": [],
      "name": "symbol",
      "outputs": [
        {
          "internalType": "string",
          "name": "",
          "type": "string"
        }
      ],
      "stateMutability": "view",
      "type": "function"
    },
    {
      "inputs": [],
      "name": "totalSupply",
      "outputs": [
        {
          "internalType": "uint256",
          "name": "",
          "type": "uint256"
        }
      ],
      "stateMutability": "view",
      "type": "function"
    },
    {
      "inputs": [
        {
          "internalType": "address",
          "name": "_to",
          "type": "address"
        },
        {
          "internalType": "uint256",
          "name": "_value",
          "type": "uint256"
        }
      ],
      "name": "transfer",
      "outputs": [
        {
          "internalType": "bool",
          "name": "success",
          "type": "bool"
        }
      ],
      "stateMutability": "nonpayable",
      "type": "function"
    }
  ],
  "bytecode": "0x60806040526040518060400160405280600b81526020017f466972737420546f6b656e000000000000000000000000000000000000000000815250600090816200004a9190620003d0565b506040518060400160405280600381526020017f465454000000000000000000000000000000000000000000000000000000000081525060019081620000919190620003d0565b50620186a0600255348015620000a657600080fd5b5033600360006101000a81548173ffffffffffffffffffffffffffffffffffffffff021916908373ffffffffffffffffffffffffffffffffffffffff16021790555060025460046000600360009054906101000a900473ffffffffffffffffffffffffffffffffffffffff1673ffffffffffffffffffffffffffffffffffffffff1673ffffffffffffffffffffffffffffffffffffffff16815260200190815260200160002081905550620004b7565b600081519050919050565b7f4e487b7100000000000000000000000000000000000000000000000000000000600052604160045260246000fd5b7f4e487b7100000000000000000000000000000000000000000000000000000000600052602260045260246000fd5b60006002820490506001821680620001d857607f821691505b602082108103620001ee57620001ed62000190565b5b50919050565b60008190508160005260206000209050919050565b60006020601f8301049050919050565b600082821b905092915050565b600060088302620002587fffffffffffffffffffffffffffffffffffffffffffffffffffffffffffffffff8262000219565b62000264868362000219565b95508019841693508086168417925050509392505050565b6000819050919050565b6000819050919050565b6000620002b1620002ab620002a5846200027c565b62000286565b6200027c565b9050919050565b6000819050919050565b620002cd8362000290565b620002e5620002dc82620002b8565b84845462000226565b825550505050565b600090565b620002fc620002ed565b62000309818484620002c2565b505050565b5b81811015620003315762000325600082620002f2565b6001810190506200030f565b5050565b601f82111562000380576200034a81620001f4565b620003558462000209565b8101602085101562000365578190505b6200037d620003748562000209565b8301826200030e565b50505b505050565b600082821c905092915050565b6000620003a56000198460080262000385565b1980831691505092915050565b6000620003c0838362000392565b9150826002028217905092915050565b620003db8262000156565b67ffffffffffffffff811115620003f757620003f662000161565b5b620004038254620001bf565b6200041082828562000335565b600060209050601f83116001811462000448576000841562000433578287015190505b6200043f8582620003b2565b865550620004af565b601f1984166200045886620001f4565b60005b8281101562000482578489015182556001820191506020850194506020810190506200045b565b86831015620004a257848901516200049e601f89168262000392565b8355505b6001600288020188555050505b505050505050565b6108df80620004c76000396000f3fe608060405234801561001057600080fd5b50600436106100625760003560e01c806306fdde031461006757806318160ddd1461008557806370a08231146100a35780638da5cb5b146100d357806395d89b41146100f1578063a9059cbb1461010f575b600080fd5b61006f61013f565b60405161007c9190610594565b60405180910390f35b61008d6101cd565b60405161009a91906105cf565b60405180910390f35b6100bd60048036038101906100b8919061064d565b6101d3565b6040516100ca91906105cf565b60405180910390f35b6100db61021c565b6040516100e89190610689565b60405180910390f35b6100f9610242565b6040516101069190610594565b60405180910390f35b610129600480360381019061012491906106d0565b6102d0565b604051610136919061072b565b60405180910390f35b6000805461014c90610775565b80601f016020809104026020016040519081016040528092919081815260200182805461017890610775565b80156101c55780601f1061019a576101008083540402835291602001916101c5565b820191906000526020600020905b8154815290600101906020018083116101a857829003601f168201915b505050505081565b60025481565b6000600460008373ffffffffffffffffffffffffffffffffffffffff1673ffffffffffffffffffffffffffffffffffffffff168152602001908152602001600020549050919050565b600360009054906101000a900473ffffffffffffffffffffffffffffffffffffffff1681565b6001805461024f90610775565b80601f016020809104026020016040519081016040528092919081815260200182805461027b90610775565b80156102c85780601f1061029d576101008083540402835291602001916102c8565b820191906000526020600020905b8154815290600101906020018083116102ab57829003601f168201915b505050505081565b600081600460003373ffffffffffffffffffffffffffffffffffffffff1673ffffffffffffffffffffffffffffffffffffffff168152602001908152602001600020541015610354576040517f08c379a000000000000000000000000000000000000000000000000000000000815260040161034b906107f2565b60405180910390fd5b600460008473ffffffffffffffffffffffffffffffffffffffff1673ffffffffffffffffffffffffffffffffffffffff1681526020019081526020016000205482600460008673ffffffffffffffffffffffffffffffffffffffff1673ffffffffffffffffffffffffffffffffffffffff168152602001908152602001600020546103df9190610841565b116103e957600080fd5b81600460003373ffffffffffffffffffffffffffffffffffffffff1673ffffffffffffffffffffffffffffffffffffffff16815260200190815260200160002060008282546104389190610875565b9250508190555081600460008573ffffffffffffffffffffffffffffffffffffffff1673ffffffffffffffffffffffffffffffffffffffff168152602001908152602001600020600082825461048e9190610841565b925050819055508273ffffffffffffffffffffffffffffffffffffffff163373ffffffffffffffffffffffffffffffffffffffff167fddf252ad1be2c89b69c2b068fc378daa952ba7f163c4a11628f55a4df523b3ef846040516104f291906105cf565b60405180910390a36001905092915050565b600081519050919050565b600082825260208201905092915050565b60005b8381101561053e578082015181840152602081019050610523565b60008484015250505050565b6000601f19601f8301169050919050565b600061056682610504565b610570818561050f565b9350610580818560208601610520565b6105898161054a565b840191505092915050565b600060208201905081810360008301526105ae818461055b565b905092915050565b6000819050919050565b6105c9816105b6565b82525050565b60006020820190506105e460008301846105c0565b92915050565b600080fd5b600073ffffffffffffffffffffffffffffffffffffffff82169050919050565b600061061a826105ef565b9050919050565b61062a8161060f565b811461063557600080fd5b50565b60008135905061064781610621565b92915050565b600060208284031215610663576106626105ea565b5b600061067184828501610638565b91505092915050565b6106838161060f565b82525050565b600060208201905061069e600083018461067a565b92915050565b6106ad816105b6565b81146106b857600080fd5b50565b6000813590506106ca816106a4565b92915050565b600080604083850312156106e7576106e66105ea565b5b60006106f585828601610638565b9250506020610706858286016106bb565b9150509250929050565b60008115159050919050565b61072581610710565b82525050565b6000602082019050610740600083018461071c565b92915050565b7f4e487b7100000000000000000000000000000000000000000000000000000000600052602260045260246000fd5b6000600282049050600182168061078d57607f821691505b6020821081036107a05761079f610746565b5b50919050565b7f6e6f7420656e6f75676820746f6b656e73202100000000000000000000000000600082015250565b60006107dc60138361050f565b91506107e7826107a6565b602082019050919050565b6000602082019050818103600083015261080b816107cf565b9050919050565b7f4e487b7100000000000000000000000000000000000000000000000000000000600052601160045260246000fd5b600061084c826105b6565b9150610857836105b6565b925082820190508082111561086f5761086e610812565b5b92915050565b6000610880826105b6565b915061088b836105b6565b92508282039050818111156108a3576108a2610812565b5b9291505056fea26469706673582212208e4931d567eab67bc3f294563b6b5f464df240894d81863bc390de5c46a98c1364736f6c63430008130033",
  "linkReferences": {},
  "deployedLinkReferences": {}
}