{
  "_format": "hh-sol-artifact-1",
  "contractName": "HotelRoom",
  "sourceName": "contracts/hotel-contract.sol",
  "abi": [
    {
      "inputs": [],
      "stateMutability": "nonpayable",
      "type": "constructor"
    },
    {
      "anonymous": false,
      "inputs": [
        {
          "indexed": false,
          "internalType": "address",
          "name": "_occupant",
          "type": "address"
        },
        {
          "indexed": false,
          "internalType": "uint256",
          "name": "_value",
          "type": "uint256"
        }
      ],
      "name": "Occupy",
      "type": "event"
    },
    {
      "inputs": [],
      "name": "book",
      "outputs": [
        {
          "internalType": "bool",
          "name": "",
          "type": "bool"
        },
        {
          "internalType": "bytes",
          "name": "",
          "type": "bytes"
        }
      ],
      "stateMutability": "payable",
      "type": "function"
    },
    {
      "inputs": [],
      "name": "currentStatus",
      "outputs": [
        {
          "internalType": "enum HotelRoom.Status",
          "name": "",
          "type": "uint8"
        }
      ],
      "stateMutability": "view",
      "type": "function"
    },
    {
      "inputs": [],
      "name": "owner",
      "outputs": [
        {
          "internalType": "address payable",
          "name": "",
          "type": "address"
        }
      ],
      "stateMutability": "view",
      "type": "function"
    }
  ],
  "bytecode": "0x608060405234801561001057600080fd5b50336000806101000a81548173ffffffffffffffffffffffffffffffffffffffff021916908373ffffffffffffffffffffffffffffffffffffffff16021790555060008060146101000a81548160ff0219169083600181111561007657610075610080565b5b02179055506100af565b7f4e487b7100000000000000000000000000000000000000000000000000000000600052602160045260246000fd5b610670806100be6000396000f3fe6080604052600436106100345760003560e01c806305a8da72146100395780638da5cb5b14610058578063ef8a923514610083575b600080fd5b6100416100ae565b60405161004f929190610364565b60405180910390f35b34801561006457600080fd5b5061006d610282565b60405161007a91906103d5565b60405180910390f35b34801561008f57600080fd5b506100986102a6565b6040516100a59190610467565b60405180910390f35b60006060671bc16d674ec800003410156100fd576040517f08c379a00000000000000000000000000000000000000000000000000000000081526004016100f4906104df565b60405180910390fd5b60006001811115610111576101106103f0565b5b600060149054906101000a900460ff166001811115610133576101326103f0565b5b14610173576040517f08c379a000000000000000000000000000000000000000000000000000000000815260040161016a90610571565b60405180910390fd5b6001600060146101000a81548160ff02191690836001811115610199576101986103f0565b5b021790555060008060008054906101000a900473ffffffffffffffffffffffffffffffffffffffff1673ffffffffffffffffffffffffffffffffffffffff16346040516101e5906105c2565b60006040518083038185875af1925050503d8060008114610222576040519150601f19603f3d011682016040523d82523d6000602084013e610227565b606091505b5091509150600115158215151461023d57600080fd5b7fba951166d42eb077151bdecb7cf6027562f04f0143b0c141b1bb0a33eef5d693333460405161026e929190610611565b60405180910390a181819350935050509091565b60008054906101000a900473ffffffffffffffffffffffffffffffffffffffff1681565b600060149054906101000a900460ff1681565b60008115159050919050565b6102ce816102b9565b82525050565b600081519050919050565b600082825260208201905092915050565b60005b8381101561030e5780820151818401526020810190506102f3565b60008484015250505050565b6000601f19601f8301169050919050565b6000610336826102d4565b61034081856102df565b93506103508185602086016102f0565b6103598161031a565b840191505092915050565b600060408201905061037960008301856102c5565b818103602083015261038b818461032b565b90509392505050565b600073ffffffffffffffffffffffffffffffffffffffff82169050919050565b60006103bf82610394565b9050919050565b6103cf816103b4565b82525050565b60006020820190506103ea60008301846103c6565b92915050565b7f4e487b7100000000000000000000000000000000000000000000000000000000600052602160045260246000fd5b600281106104305761042f6103f0565b5b50565b60008190506104418261041f565b919050565b600061045182610433565b9050919050565b61046181610446565b82525050565b600060208201905061047c6000830184610458565b92915050565b600082825260208201905092915050565b7f6e6f7420656e6f7567682065746865722e000000000000000000000000000000600082015250565b60006104c9601183610482565b91506104d482610493565b602082019050919050565b600060208201905081810360008301526104f8816104bc565b9050919050565b7f54686520686f74656c20726f6f6d20697320616c7265616479206f636375706960008201527f6564202e00000000000000000000000000000000000000000000000000000000602082015250565b600061055b602483610482565b9150610566826104ff565b604082019050919050565b6000602082019050818103600083015261058a8161054e565b9050919050565b600081905092915050565b50565b60006105ac600083610591565b91506105b78261059c565b600082019050919050565b60006105cd8261059f565b9150819050919050565b60006105e282610394565b9050919050565b6105f2816105d7565b82525050565b6000819050919050565b61060b816105f8565b82525050565b600060408201905061062660008301856105e9565b6106336020830184610602565b939250505056fea264697066735822122025b470bb889e91740885ae461fa6d4998e641fa64ba2abc66740f3fc9d7964dd64736f6c63430008130033",
  "linkReferences": {},
  "deployedLinkReferences": {}
}